:08000000803102288731FD2F39
:100E220040019101FF309600AA309600553096009D
:100E3200813096009601160881389600160881388E
:100E4200960016089600423096043C309604160826
:100E52007E39960016087E3996003C309605C330DE
:100E6200960516099600C3309605160996001609CE
:100E720096000130FA0001309600023096000230EE
:100E8200960016359600163596001608F0000130C9
:100E9200F036890B492F700896001608F0000230D0
:100EA200F036890B512F700896001608F0000430B6
:100EB200F036890B592F700896009616DF3096058A
:100EC200F801F90178087904031D682F692F772F3B
:100ED200FA01400196010D30F1002D30F000D830BA
:100EE200890B712FF00B712FF10B712FF401F501AA
:100EF200962F0D30F1002D30F000D830890B7F2F66
:100F0200F00B7F2FF10B7F2F0130F0007408073CAC
:100F1200890A8C2FF035890B8B2F70087A044001D7
:100F220096000130F4070030F53D0830F0007808F3
:100F32007002F10079090318890AF2007508803AF3
:100F4200F3007208803A7302031DA92F710874021C
:100F5200031CAC2FAD2F7A2F0130F000780AB22F8C
:100F6200F035890BB12F7008FA047A084001960017
:100F72000D30F1002D30F000D830890BBE2FF00B70
:100F8200BE2FF10BBE2F0130F8070030F93D790872
:100F9200803AF00080307002031DD12F08307802B1
:100FA200031CD42FD52F632F553040019600F60134
:100FB200F7010930F1001E30F000E430890BDF2F19
:100FC200F00BDF2FF10BDF2F0032400116099600E4
:100FD2000130F6070030F73D7708803AF0008030A4
:100FE2007002031DF62F0A307602031CF92FFA2F26
:0E0FF200DA2F612F8031022840018731112F44
:020000040001F9
:0A000E008C3FFF3F9F3FFF3FFF3F85
:00000001FF
